{
  "contractName": "Hello",
  "abi": [
    {
      "constant": true,
      "inputs": [],
      "name": "permitno",
      "outputs": [
        {
          "internalType": "uint256",
          "name": "",
          "type": "uint256"
        }
      ],
      "payable": false,
      "stateMutability": "view",
      "type": "function"
    },
    {
      "constant": true,
      "inputs": [
        {
          "internalType": "bytes32",
          "name": "",
          "type": "bytes32"
        }
      ],
      "name": "userDetails",
      "outputs": [
        {
          "internalType": "string",
          "name": "userId",
          "type": "string"
        },
        {
          "internalType": "string",
          "name": "permitno",
          "type": "string"
        },
        {
          "internalType": "string",
          "name": "division",
          "type": "string"
        },
        {
          "internalType": "string",
          "name": "signatory",
          "type": "string"
        },
        {
          "internalType": "string",
          "name": "name",
          "type": "string"
        },
        {
          "internalType": "uint256",
          "name": "startDate",
          "type": "uint256"
        },
        {
          "internalType": "uint256",
          "name": "endDate",
          "type": "uint256"
        },
        {
          "internalType": "bool",
          "name": "canceled",
          "type": "bool"
        }
      ],
      "payable": false,
      "stateMutability": "view",
      "type": "function"
    },
    {
      "constant": false,
      "inputs": [
        {
          "internalType": "string",
          "name": "_userId",
          "type": "string"
        },
        {
          "internalType": "string",
          "name": "_division",
          "type": "string"
        },
        {
          "internalType": "string",
          "name": "_permitno",
          "type": "string"
        },
        {
          "internalType": "string",
          "name": "_name",
          "type": "string"
        },
        {
          "internalType": "string",
          "name": "_signatory",
          "type": "string"
        },
        {
          "internalType": "uint256",
          "name": "_start",
          "type": "uint256"
        },
        {
          "internalType": "uint256",
          "name": "_end",
          "type": "uint256"
        }
      ],
      "name": "issuePermit",
      "outputs": [
        {
          "internalType": "bytes32",
          "name": "",
          "type": "bytes32"
        }
      ],
      "payable": false,
      "stateMutability": "nonpayable",
      "type": "function"
    },
    {
      "constant": true,
      "inputs": [
        {
          "internalType": "bytes32",
          "name": "_hash1",
          "type": "bytes32"
        }
      ],
      "name": "isValid",
      "outputs": [
        {
          "internalType": "bool",
          "name": "",
          "type": "bool"
        }
      ],
      "payable": false,
      "stateMutability": "view",
      "type": "function"
    },
    {
      "constant": true,
      "inputs": [
        {
          "internalType": "bytes32",
          "name": "_hash1",
          "type": "bytes32"
        }
      ],
      "name": "notexist",
      "outputs": [
        {
          "internalType": "bool",
          "name": "",
          "type": "bool"
        }
      ],
      "payable": false,
      "stateMutability": "view",
      "type": "function"
    },
    {
      "constant": true,
      "inputs": [
        {
          "internalType": "bytes32[]",
          "name": "_hashes",
          "type": "bytes32[]"
        }
      ],
      "name": "all",
      "outputs": [
        {
          "components": [
            {
              "internalType": "string",
              "name": "userId",
              "type": "string"
            },
            {
              "internalType": "string",
              "name": "permitno",
              "type": "string"
            },
            {
              "internalType": "string",
              "name": "division",
              "type": "string"
            },
            {
              "internalType": "string",
              "name": "signatory",
              "type": "string"
            },
            {
              "internalType": "string",
              "name": "name",
              "type": "string"
            },
            {
              "internalType": "uint256",
              "name": "startDate",
              "type": "uint256"
            },
            {
              "internalType": "uint256",
              "name": "endDate",
              "type": "uint256"
            },
            {
              "internalType": "bool",
              "name": "canceled",
              "type": "bool"
            }
          ],
          "internalType": "struct Hello.user[]",
          "name": "",
          "type": "tuple[]"
        }
      ],
      "payable": false,
      "stateMutability": "view",
      "type": "function"
    },
    {
      "constant": false,
      "inputs": [
        {
          "internalType": "bytes32",
          "name": "_hash1",
          "type": "bytes32"
        }
      ],
      "name": "cancelPermit",
      "outputs": [],
      "payable": false,
      "stateMutability": "nonpayable",
      "type": "function"
    }
  ],
  "bytecode": "0x6080604052600060015534801561001557600080fd5b50611831806100256000396000f3fe608060405234801561001057600080fd5b506004361061007d5760003560e01c80636a9385671161005b5780636a938567146100fe5780636cd33f791461012e5780637d05414a1461014c578063fa05406f146101835761007d565b8063519986c01461008257806359755bc51461009e57806364a974a8146100ce575b600080fd5b61009c60048036036100979190810190611057565b6101b3565b005b6100b860048036036100b39190810190611057565b6101e5565b6040516100c5919061151c565b60405180910390f35b6100e860048036036100e39190810190611016565b6102b5565b6040516100f591906114fa565b60405180910390f35b61011860048036036101139190810190611057565b610734565b604051610125919061151c565b60405180910390f35b610136610877565b6040516101439190611615565b60405180910390f35b61016660048036036101619190810190611057565b61087d565b60405161017a989796959493929190611574565b60405180910390f35b61019d600480360361019891908101906110a9565b610bca565b6040516101aa9190611537565b60405180910390f35b60016002600083815260200190815260200160002060070160006101000a81548160ff02191690831515021790555050565b60006060600260008481526020019081526020016000206000018054600181600116156101000203166002900480601f0160208091040260200160405190810160405280929190818152602001828054600181600116156101000203166002900480156102935780601f1061026857610100808354040283529160200191610293565b820191906000526020600020905b81548152906001019060200180831161027657829003601f168201915b5050505050905060008151146102aa5760006102ad565b60015b915050919050565b6060600060015490506060816040519080825280602002602001820160405280156102fa57816020015b6102e7610dcd565b8152602001906001900390816102df5790505b50905060008090505b60015481101561072957600085828151811061031b57fe5b6020026020010151905061032d610e14565b6002600083815260200190815260200160002060405180610100016040529081600082018054600181600116156101000203166002900480601f0160208091040260200160405190810160405280929190818152602001828054600181600116156101000203166002900480156103e55780601f106103ba576101008083540402835291602001916103e5565b820191906000526020600020905b8154815290600101906020018083116103c857829003601f168201915b50505050508152602001600182018054600181600116156101000203166002900480601f0160208091040260200160405190810160405280929190818152602001828054600181600116156101000203166002900480156104875780601f1061045c57610100808354040283529160200191610487565b820191906000526020600020905b81548152906001019060200180831161046a57829003601f168201915b50505050508152602001600282018054600181600116156101000203166002900480601f0160208091040260200160405190810160405280929190818152602001828054600181600116156101000203166002900480156105295780601f106104fe57610100808354040283529160200191610529565b820191906000526020600020905b81548152906001019060200180831161050c57829003601f168201915b50505050508152602001600382018054600181600116156101000203166002900480601f0160208091040260200160405190810160405280929190818152602001828054600181600116156101000203166002900480156105cb5780601f106105a0576101008083540402835291602001916105cb565b820191906000526020600020905b8154815290600101906020018083116105ae57829003601f168201915b50505050508152602001600482018054600181600116156101000203166002900480601f01602080910402602001604051908101604052809291908181526020018280546001816001161561010002031660029004801561066d5780601f106106425761010080835404028352916020019161066d565b820191906000526020600020905b81548152906001019060200180831161065057829003601f168201915b5050505050815260200160058201548152602001600682015481526020016007820160009054906101000a900460ff161515151581525050905060405180610100016040528082600001518152602001826020015181526020018260400151815260200182606001518152602001826080015181526020018260a0015181526020018260c0015181526020018260e00151151581525084848151811061070f57fe5b602002602001018190525050508080600101915050610303565b508092505050919050565b60006060600260008481526020019081526020016000206000018054600181600116156101000203166002900480601f0160208091040260200160405190810160405280929190818152602001828054600181600116156101000203166002900480156107e25780601f106107b7576101008083540402835291602001916107e2565b820191906000526020600020905b8154815290600101906020018083116107c557829003601f168201915b505050505090506000808251146107fa5760016107fd565b60005b9050600115158115151480156108285750600260008581526020019081526020016000206006015442105b801561085b5750600015156002600086815260200190815260200160002060070160009054906101000a900460ff161515145b1561086b57600192505050610872565b6000925050505b919050565b60015481565b6002602052806000526040600020600091509050806000018054600181600116156101000203166002900480601f0160208091040260200160405190810160405280929190818152602001828054600181600116156101000203166002900480156109295780601f106108fe57610100808354040283529160200191610929565b820191906000526020600020905b81548152906001019060200180831161090c57829003601f168201915b505050505090806001018054600181600116156101000203166002900480601f0160208091040260200160405190810160405280929190818152602001828054600181600116156101000203166002900480156109c75780601f1061099c576101008083540402835291602001916109c7565b820191906000526020600020905b8154815290600101906020018083116109aa57829003601f168201915b505050505090806002018054600181600116156101000203166002900480601f016020809104026020016040519081016040528092919081815260200182805460018160011615610100020316600290048015610a655780601f10610a3a57610100808354040283529160200191610a65565b820191906000526020600020905b815481529060010190602001808311610a4857829003601f168201915b505050505090806003018054600181600116156101000203166002900480601f016020809104026020016040519081016040528092919081815260200182805460018160011615610100020316600290048015610b035780601f10610ad857610100808354040283529160200191610b03565b820191906000526020600020905b815481529060010190602001808311610ae657829003601f168201915b505050505090806004018054600181600116156101000203166002900480601f016020809104026020016040519081016040528092919081815260200182805460018160011615610100020316600290048015610ba15780601f10610b7657610100808354040283529160200191610ba1565b820191906000526020600020905b815481529060010190602001808311610b8457829003601f168201915b5050505050908060050154908060060154908060070160009054906101000a900460ff16905088565b600060016000815480929190600101919050555060008090506060898989888888604051602001610c009695949392919061149a565b60405160208183030381529060405290506000600282604051602001610c269190611552565b604051602081830303815290604052604051610c429190611483565b602060405180830381855afa158015610c5f573d6000803e3d6000fd5b5050506040513d601f19601f82011682018060405250610c829190810190611080565b905060011515610c91826101e5565b1515148015610c9f57508442105b15610dbc576040518061010001604052808c81526020018a81526020018b8152602001888152602001898152602001878152602001868152602001841515815250600260008381526020019081526020016000206000820151816000019080519060200190610d0f929190610e5b565b506020820151816001019080519060200190610d2c929190610e5b565b506040820151816002019080519060200190610d49929190610e5b565b506060820151816003019080519060200190610d66929190610e5b565b506080820151816004019080519060200190610d83929190610e5b565b5060a0820151816005015560c0820151816006015560e08201518160070160006101000a81548160ff0219169083151502179055509050505b809350505050979650505050505050565b604051806101000160405280606081526020016060815260200160608152602001606081526020016060815260200160008152602001600081526020016000151581525090565b604051806101000160405280606081526020016060815260200160608152602001606081526020016060815260200160008152602001600081526020016000151581525090565b828054600181600116156101000203166002900490600052602060002090601f016020900481019282601f10610e9c57805160ff1916838001178555610eca565b82800160010185558215610eca579182015b82811115610ec9578251825591602001919060010190610eae565b5b509050610ed79190610edb565b5090565b610efd91905b80821115610ef9576000816000905550600101610ee1565b5090565b90565b600082601f830112610f1157600080fd5b8135610f24610f1f8261165d565b611630565b91508181835260208401935060208101905083856020840282011115610f4957600080fd5b60005b83811015610f795781610f5f8882610f83565b845260208401935060208301925050600181019050610f4c565b5050505092915050565b600081359050610f92816117c0565b92915050565b600081519050610fa7816117c0565b92915050565b600082601f830112610fbe57600080fd5b8135610fd1610fcc82611685565b611630565b91508082526020830160208301858383011115610fed57600080fd5b610ff8838284611763565b50505092915050565b600081359050611010816117d7565b92915050565b60006020828403121561102857600080fd5b600082013567ffffffffffffffff81111561104257600080fd5b61104e84828501610f00565b91505092915050565b60006020828403121561106957600080fd5b600061107784828501610f83565b91505092915050565b60006020828403121561109257600080fd5b60006110a084828501610f98565b91505092915050565b600080600080600080600060e0888a0312156110c457600080fd5b600088013567ffffffffffffffff8111156110de57600080fd5b6110ea8a828b01610fad565b975050602088013567ffffffffffffffff81111561110757600080fd5b6111138a828b01610fad565b965050604088013567ffffffffffffffff81111561113057600080fd5b61113c8a828b01610fad565b955050606088013567ffffffffffffffff81111561115957600080fd5b6111658a828b01610fad565b945050608088013567ffffffffffffffff81111561118257600080fd5b61118e8a828b01610fad565b93505060a061119f8a828b01611001565b92505060c06111b08a828b01611001565b91505092959891949750929550565b60006111cb8383611382565b905092915050565b60006111de826116c1565b6111e881856116fa565b9350836020820285016111fa856116b1565b8060005b85811015611236578484038952815161121785826111bf565b9450611222836116ed565b925060208a019950506001810190506111fe565b50829750879550505050505092915050565b61125181611743565b82525050565b61126081611743565b82525050565b61126f8161174f565b82525050565b6000611280826116cc565b61128a818561170b565b935061129a818560208601611772565b80840191505092915050565b60006112b1826116e2565b6112bb8185611727565b93506112cb818560208601611772565b6112d4816117af565b840191505092915050565b60006112ea826116e2565b6112f48185611738565b9350611304818560208601611772565b80840191505092915050565b600061131b826116d7565b6113258185611716565b9350611335818560208601611772565b61133e816117af565b840191505092915050565b6000611354826116d7565b61135e8185611727565b935061136e818560208601611772565b611377816117af565b840191505092915050565b60006101008301600083015184820360008601526113a08282611310565b915050602083015184820360208601526113ba8282611310565b915050604083015184820360408601526113d48282611310565b915050606083015184820360608601526113ee8282611310565b915050608083015184820360808601526114088282611310565b91505060a083015161141d60a086018261144e565b5060c083015161143060c086018261144e565b5060e083015161144360e0860182611248565b508091505092915050565b61145781611759565b82525050565b61146681611759565b82525050565b61147d61147882611759565b6117a5565b82525050565b600061148f8284611275565b915081905092915050565b60006114a682896112df565b91506114b282886112df565b91506114be82876112df565b91506114ca82866112df565b91506114d6828561146c565b6020820191506114e6828461146c565b602082019150819050979650505050505050565b6000602082019050818103600083015261151481846111d3565b905092915050565b60006020820190506115316000830184611257565b92915050565b600060208201905061154c6000830184611266565b92915050565b6000602082019050818103600083015261156c81846112a6565b905092915050565b600061010082019050818103600083015261158f818b611349565b905081810360208301526115a3818a611349565b905081810360408301526115b78189611349565b905081810360608301526115cb8188611349565b905081810360808301526115df8187611349565b90506115ee60a083018661145d565b6115fb60c083018561145d565b61160860e0830184611257565b9998505050505050505050565b600060208201905061162a600083018461145d565b92915050565b6000604051905081810181811067ffffffffffffffff8211171561165357600080fd5b8060405250919050565b600067ffffffffffffffff82111561167457600080fd5b602082029050602081019050919050565b600067ffffffffffffffff82111561169c57600080fd5b601f19601f8301169050602081019050919050565b6000819050602082019050919050565b600081519050919050565b600081519050919050565b600081519050919050565b600081519050919050565b6000602082019050919050565b600082825260208201905092915050565b600081905092915050565b600082825260208201905092915050565b600082825260208201905092915050565b600081905092915050565b60008115159050919050565b6000819050919050565b6000819050919050565b82818337600083830152505050565b60005b83811015611790578082015181840152602081019050611775565b8381111561179f576000848401525b50505050565b6000819050919050565b6000601f19601f8301169050919050565b6117c98161174f565b81146117d457600080fd5b50565b6117e081611759565b81146117eb57600080fd5b5056fea365627a7a72315820d170927ca60b76ea66c26832e7a4ce3c87fea351f445269a2ba4f72d20d3133d6c6578706572696d656e74616cf564736f6c63430005100040",
  "source": "// SPDX-License-Identifier: MIT\npragma solidity >=0.4.0 <0.9.0;\npragma experimental ABIEncoderV2;\ncontract Hello {\n\n   address contractOwner;\n   uint public permitno=0;\n\n   // struct Date{\n   //    uint day;\n   //    uint month;\n   //    uint year;\n   // }\n\n   struct user{\n      string userId;\n      string permitno;\n      string division;\n      string signatory;\n      //string hash2;\n      string name;\n      uint startDate;\n      uint endDate;\n      bool canceled;\n   }\n\n   mapping(bytes32=>user)public userDetails;\n\n   // constructor() public{\n   //    contractOwner=msg.sender;\n   // }\n\n\n   function issuePermit(string memory _userId,string memory _division,string memory _permitno,string memory _name,string memory _signatory,uint _start,uint _end) public returns(bytes32){\n      permitno++;\n      bool _canceled=false;\n      string memory combined=string(abi.encodePacked(_userId,_division,_permitno,_signatory,_start,_end));\n      bytes32 _hash1=sha256(abi.encode(combined));\n      //bytes32 _hash2=sha256(_hash1);\n      if(notexist(_hash1)==true &&  block.timestamp<_end){\n      userDetails[_hash1]=user(_userId,_permitno,_division,_signatory,_name,_start,_end,_canceled); //[\"Asddsadsk6484\"]=>(\"raman\",\"55\",\"A\",\"ramesh\",\"hash for mongo\")\n      }\n      return _hash1;\n   }\n\n   function isValid(bytes32 _hash1) view public returns(bool){\n      bytes memory tempEmptyStringTest = bytes(userDetails[_hash1].userId); // Uses memory\n      bool temp=(tempEmptyStringTest.length==0?false:true);\n      if(temp==true && block.timestamp<userDetails[_hash1].endDate && userDetails[_hash1].canceled==false ){\n         return true;\n      }\n      return false;\n   } \n   \n   function notexist(bytes32 _hash1) view public returns(bool){\n      bytes memory tempEmptyStringTest = bytes(userDetails[_hash1].userId); // Uses memory\n      return (tempEmptyStringTest.length==0?true:false);\n   }\n\n   function all(bytes32[]  memory _hashes) public view returns(user[] memory){\n      uint size=permitno;\n      user[] memory _allUser=new user[](size);\n      for(uint i=0;i<permitno;i++){\n         bytes32 _userhash=_hashes[i];\n         user memory a=userDetails[_userhash];\n         _allUser[i]=user(a.userId,a.permitno,a.division,a.signatory,a.name,a.startDate,a.endDate,a.canceled);\n      }\n      return _allUser;\n   }\n\n   // function updatePermit(bytes32 _hash1,uint _newend)public{\n\n   // }\n   function cancelPermit(bytes32 _hash1)public{\n      userDetails[_hash1].canceled=true;\n   }\n\n   //getUserData , UpdatePermit, cancelPermit, getDataLocationWise\n\n}",
  "sourcePath": "/mnt/c/Users/RishavK/Desktop/blockidm/truffle/contracts/hello.sol",
  "compiler": {
    "name": "solc",
    "version": "0.5.16+commit.9c3226ce.Emscripten.clang"
  },
  "schemaVersion": "3.4.3",
  "updatedAt": "2021-12-06T18:44:15.500Z",
  "networkType": "ethereum",
  "devdoc": {
    "methods": {}
  },
  "userdoc": {
    "methods": {}
  }
}