{
  "contractName": "Hello",
  "abi": [
    {
      "inputs": [],
      "payable": false,
      "stateMutability": "nonpayable",
      "type": "constructor"
    },
    {
      "constant": true,
      "inputs": [],
      "name": "permitno",
      "outputs": [
        {
          "internalType": "uint256",
          "name": "",
          "type": "uint256"
        }
      ],
      "payable": false,
      "stateMutability": "view",
      "type": "function"
    },
    {
      "constant": true,
      "inputs": [
        {
          "internalType": "bytes32",
          "name": "",
          "type": "bytes32"
        }
      ],
      "name": "userDetails",
      "outputs": [
        {
          "internalType": "string",
          "name": "userId",
          "type": "string"
        },
        {
          "internalType": "uint256",
          "name": "permitno",
          "type": "uint256"
        },
        {
          "internalType": "string",
          "name": "division",
          "type": "string"
        },
        {
          "internalType": "string",
          "name": "signatory",
          "type": "string"
        },
        {
          "internalType": "string",
          "name": "name",
          "type": "string"
        },
        {
          "internalType": "uint256",
          "name": "startDate",
          "type": "uint256"
        },
        {
          "internalType": "uint256",
          "name": "endDate",
          "type": "uint256"
        },
        {
          "internalType": "bool",
          "name": "canceled",
          "type": "bool"
        }
      ],
      "payable": false,
      "stateMutability": "view",
      "type": "function"
    },
    {
      "constant": false,
      "inputs": [
        {
          "internalType": "string",
          "name": "_userId",
          "type": "string"
        },
        {
          "internalType": "string",
          "name": "_division",
          "type": "string"
        },
        {
          "internalType": "string",
          "name": "_name",
          "type": "string"
        },
        {
          "internalType": "string",
          "name": "_signatory",
          "type": "string"
        }
      ],
      "name": "issuePermit",
      "outputs": [
        {
          "internalType": "bytes32",
          "name": "",
          "type": "bytes32"
        }
      ],
      "payable": false,
      "stateMutability": "nonpayable",
      "type": "function"
    },
    {
      "constant": true,
      "inputs": [
        {
          "internalType": "bytes32",
          "name": "_hash1",
          "type": "bytes32"
        }
      ],
      "name": "isValid",
      "outputs": [
        {
          "internalType": "bool",
          "name": "",
          "type": "bool"
        }
      ],
      "payable": false,
      "stateMutability": "view",
      "type": "function"
    },
    {
      "constant": true,
      "inputs": [
        {
          "internalType": "bytes32",
          "name": "_hash1",
          "type": "bytes32"
        }
      ],
      "name": "notexist",
      "outputs": [
        {
          "internalType": "bool",
          "name": "",
          "type": "bool"
        }
      ],
      "payable": false,
      "stateMutability": "view",
      "type": "function"
    },
    {
      "constant": true,
      "inputs": [
        {
          "internalType": "bytes32[]",
          "name": "_hashes",
          "type": "bytes32[]"
        }
      ],
      "name": "all",
      "outputs": [
        {
          "components": [
            {
              "internalType": "string",
              "name": "userId",
              "type": "string"
            },
            {
              "internalType": "uint256",
              "name": "permitno",
              "type": "uint256"
            },
            {
              "internalType": "string",
              "name": "division",
              "type": "string"
            },
            {
              "internalType": "string",
              "name": "signatory",
              "type": "string"
            },
            {
              "internalType": "string",
              "name": "name",
              "type": "string"
            },
            {
              "internalType": "uint256",
              "name": "startDate",
              "type": "uint256"
            },
            {
              "internalType": "uint256",
              "name": "endDate",
              "type": "uint256"
            },
            {
              "internalType": "bool",
              "name": "canceled",
              "type": "bool"
            }
          ],
          "internalType": "struct Hello.user[]",
          "name": "",
          "type": "tuple[]"
        }
      ],
      "payable": false,
      "stateMutability": "view",
      "type": "function"
    },
    {
      "constant": false,
      "inputs": [
        {
          "internalType": "bytes32",
          "name": "_hash1",
          "type": "bytes32"
        }
      ],
      "name": "cancelPermit",
      "outputs": [],
      "payable": false,
      "stateMutability": "nonpayable",
      "type": "function"
    }
  ],
  "bytecode": "0x6080604052600060015534801561001557600080fd5b50336000806101000a81548173ffffffffffffffffffffffffffffffffffffffff021916908373ffffffffffffffffffffffffffffffffffffffff16021790555060016000815480929190600101919050555061166d806100776000396000f3fe608060405234801561001057600080fd5b506004361061007d5760003560e01c806364a974a81161005b57806364a974a8146100fe5780636a9385671461012e5780636cd33f791461015e5780637d05414a1461017c5761007d565b80630b63bc6914610082578063519986c0146100b257806359755bc5146100ce575b600080fd5b61009c60048036036100979190810190610f59565b6101b3565b6040516100a99190611391565b60405180910390f35b6100cc60048036036100c79190810190610f07565b6103ab565b005b6100e860048036036100e39190810190610f07565b6103dd565b6040516100f59190611376565b60405180910390f35b61011860048036036101139190810190610ec6565b6104ad565b6040516101259190611354565b60405180910390f35b61014860048036036101439190810190610f07565b610894565b6040516101559190611376565b60405180910390f35b6101666109d7565b6040516101739190611468565b60405180910390f35b61019660048036036101919190810190610f07565b6109dd565b6040516101aa9897969594939291906113ce565b60405180910390f35b60006001600081548092919060010191905055506000809050600042905060006301e1853e82019050606088886001548886866040516020016101fb969594939291906112f0565b6040516020818303038152906040529050600060028260405160200161022191906113ac565b60405160208183030381529060405260405161023d91906112d9565b602060405180830381855afa15801561025a573d6000803e3d6000fd5b5050506040513d601f19601f8201168201806040525061027d9190810190610f30565b90506001151561028c826103dd565b1515141561039b576040518061010001604052808b815260200160015481526020018a8152602001888152602001898152602001858152602001848152602001861515815250600260008381526020019081526020016000206000820151816000019080519060200190610301929190610c92565b50602082015181600101556040820151816002019080519060200190610328929190610c92565b506060820151816003019080519060200190610345929190610c92565b506080820151816004019080519060200190610362929190610c92565b5060a0820151816005015560c0820151816006015560e08201518160070160006101000a81548160ff0219169083151502179055509050505b8095505050505050949350505050565b60016002600083815260200190815260200160002060070160006101000a81548160ff02191690831515021790555050565b60006060600260008481526020019081526020016000206000018054600181600116156101000203166002900480601f01602080910402602001604051908101604052809291908181526020018280546001816001161561010002031660029004801561048b5780601f106104605761010080835404028352916020019161048b565b820191906000526020600020905b81548152906001019060200180831161046e57829003601f168201915b5050505050905060008151146104a25760006104a5565b60015b915050919050565b6060600060015490506060816040519080825280602002602001820160405280156104f257816020015b6104df610d12565b8152602001906001900390816104d75790505b50905060008090505b60015481101561088957600085828151811061051357fe5b60200260200101519050610525610d59565b6002600083815260200190815260200160002060405180610100016040529081600082018054600181600116156101000203166002900480601f0160208091040260200160405190810160405280929190818152602001828054600181600116156101000203166002900480156105dd5780601f106105b2576101008083540402835291602001916105dd565b820191906000526020600020905b8154815290600101906020018083116105c057829003601f168201915b5050505050815260200160018201548152602001600282018054600181600116156101000203166002900480601f0160208091040260200160405190810160405280929190818152602001828054600181600116156101000203166002900480156106895780601f1061065e57610100808354040283529160200191610689565b820191906000526020600020905b81548152906001019060200180831161066c57829003601f168201915b50505050508152602001600382018054600181600116156101000203166002900480601f01602080910402602001604051908101604052809291908181526020018280546001816001161561010002031660029004801561072b5780601f106107005761010080835404028352916020019161072b565b820191906000526020600020905b81548152906001019060200180831161070e57829003601f168201915b50505050508152602001600482018054600181600116156101000203166002900480601f0160208091040260200160405190810160405280929190818152602001828054600181600116156101000203166002900480156107cd5780601f106107a2576101008083540402835291602001916107cd565b820191906000526020600020905b8154815290600101906020018083116107b057829003601f168201915b5050505050815260200160058201548152602001600682015481526020016007820160009054906101000a900460ff161515151581525050905060405180610100016040528082600001518152602001826020015181526020018260400151815260200182606001518152602001826080015181526020018260a0015181526020018260c0015181526020018260e00151151581525084848151811061086f57fe5b6020026020010181905250505080806001019150506104fb565b508092505050919050565b60006060600260008481526020019081526020016000206000018054600181600116156101000203166002900480601f0160208091040260200160405190810160405280929190818152602001828054600181600116156101000203166002900480156109425780601f1061091757610100808354040283529160200191610942565b820191906000526020600020905b81548152906001019060200180831161092557829003601f168201915b5050505050905060008082511461095a57600161095d565b60005b9050600115158115151480156109885750600260008581526020019081526020016000206006015442105b80156109bb5750600015156002600086815260200190815260200160002060070160009054906101000a900460ff161515145b156109cb576001925050506109d2565b6000925050505b919050565b60015481565b6002602052806000526040600020600091509050806000018054600181600116156101000203166002900480601f016020809104026020016040519081016040528092919081815260200182805460018160011615610100020316600290048015610a895780601f10610a5e57610100808354040283529160200191610a89565b820191906000526020600020905b815481529060010190602001808311610a6c57829003601f168201915b505050505090806001015490806002018054600181600116156101000203166002900480601f016020809104026020016040519081016040528092919081815260200182805460018160011615610100020316600290048015610b2d5780601f10610b0257610100808354040283529160200191610b2d565b820191906000526020600020905b815481529060010190602001808311610b1057829003601f168201915b505050505090806003018054600181600116156101000203166002900480601f016020809104026020016040519081016040528092919081815260200182805460018160011615610100020316600290048015610bcb5780601f10610ba057610100808354040283529160200191610bcb565b820191906000526020600020905b815481529060010190602001808311610bae57829003601f168201915b505050505090806004018054600181600116156101000203166002900480601f016020809104026020016040519081016040528092919081815260200182805460018160011615610100020316600290048015610c695780601f10610c3e57610100808354040283529160200191610c69565b820191906000526020600020905b815481529060010190602001808311610c4c57829003601f168201915b5050505050908060050154908060060154908060070160009054906101000a900460ff16905088565b828054600181600116156101000203166002900490600052602060002090601f016020900481019282601f10610cd357805160ff1916838001178555610d01565b82800160010185558215610d01579182015b82811115610d00578251825591602001919060010190610ce5565b5b509050610d0e9190610da0565b5090565b604051806101000160405280606081526020016000815260200160608152602001606081526020016060815260200160008152602001600081526020016000151581525090565b604051806101000160405280606081526020016000815260200160608152602001606081526020016060815260200160008152602001600081526020016000151581525090565b610dc291905b80821115610dbe576000816000905550600101610da6565b5090565b90565b600082601f830112610dd657600080fd5b8135610de9610de4826114b0565b611483565b91508181835260208401935060208101905083856020840282011115610e0e57600080fd5b60005b83811015610e3e5781610e248882610e48565b845260208401935060208301925050600181019050610e11565b5050505092915050565b600081359050610e5781611613565b92915050565b600081519050610e6c81611613565b92915050565b600082601f830112610e8357600080fd5b8135610e96610e91826114d8565b611483565b91508082526020830160208301858383011115610eb257600080fd5b610ebd8382846115b6565b50505092915050565b600060208284031215610ed857600080fd5b600082013567ffffffffffffffff811115610ef257600080fd5b610efe84828501610dc5565b91505092915050565b600060208284031215610f1957600080fd5b6000610f2784828501610e48565b91505092915050565b600060208284031215610f4257600080fd5b6000610f5084828501610e5d565b91505092915050565b60008060008060808587031215610f6f57600080fd5b600085013567ffffffffffffffff811115610f8957600080fd5b610f9587828801610e72565b945050602085013567ffffffffffffffff811115610fb257600080fd5b610fbe87828801610e72565b935050604085013567ffffffffffffffff811115610fdb57600080fd5b610fe787828801610e72565b925050606085013567ffffffffffffffff81111561100457600080fd5b61101087828801610e72565b91505092959194509250565b600061102883836111df565b905092915050565b600061103b82611514565b611045818561154d565b93508360208202850161105785611504565b8060005b858110156110935784840389528151611074858261101c565b945061107f83611540565b925060208a0199505060018101905061105b565b50829750879550505050505092915050565b6110ae81611596565b82525050565b6110bd81611596565b82525050565b6110cc816115a2565b82525050565b60006110dd8261151f565b6110e7818561155e565b93506110f78185602086016115c5565b80840191505092915050565b600061110e82611535565b611118818561157a565b93506111288185602086016115c5565b61113181611602565b840191505092915050565b600061114782611535565b611151818561158b565b93506111618185602086016115c5565b80840191505092915050565b60006111788261152a565b6111828185611569565b93506111928185602086016115c5565b61119b81611602565b840191505092915050565b60006111b18261152a565b6111bb818561157a565b93506111cb8185602086016115c5565b6111d481611602565b840191505092915050565b60006101008301600083015184820360008601526111fd828261116d565b915050602083015161121260208601826112a4565b506040830151848203604086015261122a828261116d565b91505060608301518482036060860152611244828261116d565b9150506080830151848203608086015261125e828261116d565b91505060a083015161127360a08601826112a4565b5060c083015161128660c08601826112a4565b5060e083015161129960e08601826110a5565b508091505092915050565b6112ad816115ac565b82525050565b6112bc816115ac565b82525050565b6112d36112ce826115ac565b6115f8565b82525050565b60006112e582846110d2565b915081905092915050565b60006112fc828961113c565b9150611308828861113c565b915061131482876112c2565b602082019150611324828661113c565b915061133082856112c2565b60208201915061134082846112c2565b602082019150819050979650505050505050565b6000602082019050818103600083015261136e8184611030565b905092915050565b600060208201905061138b60008301846110b4565b92915050565b60006020820190506113a660008301846110c3565b92915050565b600060208201905081810360008301526113c68184611103565b905092915050565b60006101008201905081810360008301526113e9818b6111a6565b90506113f8602083018a6112b3565b818103604083015261140a81896111a6565b9050818103606083015261141e81886111a6565b9050818103608083015261143281876111a6565b905061144160a08301866112b3565b61144e60c08301856112b3565b61145b60e08301846110b4565b9998505050505050505050565b600060208201905061147d60008301846112b3565b92915050565b6000604051905081810181811067ffffffffffffffff821117156114a657600080fd5b8060405250919050565b600067ffffffffffffffff8211156114c757600080fd5b602082029050602081019050919050565b600067ffffffffffffffff8211156114ef57600080fd5b601f19601f8301169050602081019050919050565b6000819050602082019050919050565b600081519050919050565b600081519050919050565b600081519050919050565b600081519050919050565b6000602082019050919050565b600082825260208201905092915050565b600081905092915050565b600082825260208201905092915050565b600082825260208201905092915050565b600081905092915050565b60008115159050919050565b6000819050919050565b6000819050919050565b82818337600083830152505050565b60005b838110156115e35780820151818401526020810190506115c8565b838111156115f2576000848401525b50505050565b6000819050919050565b6000601f19601f8301169050919050565b61161c816115a2565b811461162757600080fd5b5056fea365627a7a723158209b693e9e443eea85ad6be18744cfaba4bcee38e1dfd639d494363043475f02656c6578706572696d656e74616cf564736f6c63430005100040",
  "source": "// SPDX-License-Identifier: MIT\npragma solidity >=0.4.0 <0.9.0;\npragma experimental ABIEncoderV2;\ncontract Hello {\n\n   address contractOwner;\n   uint public permitno=0;\n\n   // struct Date{\n   //    uint day;\n   //    uint month;\n   //    uint year;\n   // }\n\n   struct user{\n      string userId;\n      uint permitno;\n      string division;\n      string signatory;\n      //string hash2;\n      string name;\n      uint startDate;\n      uint endDate;\n      bool canceled;\n   }\n\n   mapping(bytes32=>user)public userDetails;\n\n   constructor() public{\n      contractOwner=msg.sender;\n      permitno++;\n   }\n\n\n   function issuePermit(string memory _userId,string memory _division,string memory _name,string memory _signatory) public returns(bytes32){\n      permitno++;\n      bool _canceled=false;\n      uint _start=block.timestamp;// current timestamp\n      uint _end=_start+31556926; //1 year valid\n      string memory combined=string(abi.encodePacked(_userId,_division,permitno,_signatory,_start,_end));\n      bytes32 _hash1=sha256(abi.encode(combined));\n      //bytes32 _hash2=sha256(_hash1);\n      if(notexist(_hash1)==true){\n      userDetails[_hash1]=user(_userId,permitno,_division,_signatory,_name,_start,_end,_canceled); //[\"Asddsadsk6484\"]=>(\"raman\",\"55\",\"A\",\"ramesh\",\"hash for mongo\")\n      }\n      return _hash1;\n   }\n\n   function isValid(bytes32 _hash1) view public returns(bool){\n      bytes memory tempEmptyStringTest = bytes(userDetails[_hash1].userId); // Uses memory\n      bool temp=(tempEmptyStringTest.length==0?false:true);\n      if(temp==true && block.timestamp<userDetails[_hash1].endDate && userDetails[_hash1].canceled==false ){\n         return true;\n      }\n      return false;\n   } \n   \n   function notexist(bytes32 _hash1) view public returns(bool){\n      bytes memory tempEmptyStringTest = bytes(userDetails[_hash1].userId); // Uses memory\n      return (tempEmptyStringTest.length==0?true:false);\n   }\n\n   function all(bytes32[]  memory _hashes) public view returns(user[] memory){\n      uint size=permitno;\n      user[] memory _allUser=new user[](size);\n      for(uint i=0;i<permitno;i++){\n         bytes32 _userhash=_hashes[i];\n         user memory a=userDetails[_userhash];\n         _allUser[i]=user(a.userId,a.permitno,a.division,a.signatory,a.name,a.startDate,a.endDate,a.canceled);\n      }\n      return _allUser;\n   }\n\n   // function updatePermit(bytes32 _hash1,uint _newend)public{\n\n   // }\n   function cancelPermit(bytes32 _hash1)public{\n      userDetails[_hash1].canceled=true;\n   }\n\n   //getUserData , UpdatePermit, cancelPermit, getDataLocationWise\n\n}",
  "sourcePath": "/home/rishav/Desktop/blockidm/truffle/contracts/hello.sol",
  "compiler": {
    "name": "solc",
    "version": "0.5.16+commit.9c3226ce.Emscripten.clang"
  },
  "schemaVersion": "3.4.3",
  "updatedAt": "2021-12-08T16:53:40.573Z",
  "networkType": "ethereum",
  "devdoc": {
    "methods": {}
  },
  "userdoc": {
    "methods": {}
  }
}