{
  "contractName": "Hello",
  "abi": [
    {
      "anonymous": false,
      "inputs": [
        {
          "indexed": false,
          "internalType": "bytes32",
          "name": "_hash1",
          "type": "bytes32"
        }
      ],
      "name": "e",
      "type": "event"
    },
    {
      "constant": true,
      "inputs": [],
      "name": "permitno",
      "outputs": [
        {
          "internalType": "uint256",
          "name": "",
          "type": "uint256"
        }
      ],
      "payable": false,
      "stateMutability": "view",
      "type": "function"
    },
    {
      "constant": true,
      "inputs": [
        {
          "internalType": "bytes32",
          "name": "",
          "type": "bytes32"
        }
      ],
      "name": "userDetails",
      "outputs": [
        {
          "internalType": "string",
          "name": "userId",
          "type": "string"
        },
        {
          "internalType": "uint256",
          "name": "permitno",
          "type": "uint256"
        },
        {
          "internalType": "string",
          "name": "division",
          "type": "string"
        },
        {
          "internalType": "string",
          "name": "signatory",
          "type": "string"
        },
        {
          "internalType": "string",
          "name": "name",
          "type": "string"
        },
        {
          "internalType": "uint256",
          "name": "startDate",
          "type": "uint256"
        },
        {
          "internalType": "uint256",
          "name": "endDate",
          "type": "uint256"
        },
        {
          "internalType": "bool",
          "name": "canceled",
          "type": "bool"
        }
      ],
      "payable": false,
      "stateMutability": "view",
      "type": "function"
    },
    {
      "constant": false,
      "inputs": [
        {
          "internalType": "string",
          "name": "_userId",
          "type": "string"
        },
        {
          "internalType": "string",
          "name": "_division",
          "type": "string"
        },
        {
          "internalType": "string",
          "name": "_name",
          "type": "string"
        },
        {
          "internalType": "string",
          "name": "_signatory",
          "type": "string"
        }
      ],
      "name": "issuePermit",
      "outputs": [
        {
          "internalType": "bytes32",
          "name": "",
          "type": "bytes32"
        }
      ],
      "payable": false,
      "stateMutability": "nonpayable",
      "type": "function"
    },
    {
      "constant": true,
      "inputs": [
        {
          "internalType": "bytes32",
          "name": "_hash1",
          "type": "bytes32"
        }
      ],
      "name": "isValid",
      "outputs": [
        {
          "internalType": "bool",
          "name": "",
          "type": "bool"
        }
      ],
      "payable": false,
      "stateMutability": "view",
      "type": "function"
    },
    {
      "constant": true,
      "inputs": [
        {
          "internalType": "bytes32",
          "name": "_hash1",
          "type": "bytes32"
        }
      ],
      "name": "notexist",
      "outputs": [
        {
          "internalType": "bool",
          "name": "",
          "type": "bool"
        }
      ],
      "payable": false,
      "stateMutability": "view",
      "type": "function"
    },
    {
      "constant": true,
      "inputs": [
        {
          "internalType": "bytes32[]",
          "name": "_hashes",
          "type": "bytes32[]"
        }
      ],
      "name": "all",
      "outputs": [
        {
          "components": [
            {
              "internalType": "string",
              "name": "userId",
              "type": "string"
            },
            {
              "internalType": "uint256",
              "name": "permitno",
              "type": "uint256"
            },
            {
              "internalType": "string",
              "name": "division",
              "type": "string"
            },
            {
              "internalType": "string",
              "name": "signatory",
              "type": "string"
            },
            {
              "internalType": "string",
              "name": "name",
              "type": "string"
            },
            {
              "internalType": "uint256",
              "name": "startDate",
              "type": "uint256"
            },
            {
              "internalType": "uint256",
              "name": "endDate",
              "type": "uint256"
            },
            {
              "internalType": "bool",
              "name": "canceled",
              "type": "bool"
            }
          ],
          "internalType": "struct Hello.user[]",
          "name": "",
          "type": "tuple[]"
        }
      ],
      "payable": false,
      "stateMutability": "view",
      "type": "function"
    },
    {
      "constant": false,
      "inputs": [
        {
          "internalType": "bytes32",
          "name": "_hash1",
          "type": "bytes32"
        }
      ],
      "name": "cancelPermit",
      "outputs": [],
      "payable": false,
      "stateMutability": "nonpayable",
      "type": "function"
    }
  ],
  "bytecode": "0x60806040526001805534801561001457600080fd5b506116af806100246000396000f3fe608060405234801561001057600080fd5b506004361061007d5760003560e01c806364a974a81161005b57806364a974a8146100fe5780636a9385671461012e5780636cd33f791461015e5780637d05414a1461017c5761007d565b80630b63bc6914610082578063519986c0146100b257806359755bc5146100ce575b600080fd5b61009c60048036036100979190810190610f9b565b6101b3565b6040516100a991906113d3565b60405180910390f35b6100cc60048036036100c79190810190610f49565b6103ed565b005b6100e860048036036100e39190810190610f49565b61041f565b6040516100f591906113b8565b60405180910390f35b61011860048036036101139190810190610f08565b6104ef565b6040516101259190611396565b60405180910390f35b61014860048036036101439190810190610f49565b6108d6565b60405161015591906113b8565b60405180910390f35b610166610a19565b60405161017391906114aa565b60405180910390f35b61019660048036036101919190810190610f49565b610a1f565b6040516101aa989796959493929190611410565b60405180910390f35b60006001600081548092919060010191905055506000809050600042905060006301e1853e82019050606088886001548886866040516020016101fb96959493929190611332565b6040516020818303038152906040529050600060028260405160200161022191906113ee565b60405160208183030381529060405260405161023d919061131b565b602060405180830381855afa15801561025a573d6000803e3d6000fd5b5050506040513d601f19601f8201168201806040525061027d9190810190610f72565b90506001151561028c8261041f565b151514801561029a57508242105b156103a6576040518061010001604052808b815260200160015481526020018a815260200188815260200189815260200185815260200184815260200186151581525060026000838152602001908152602001600020600082015181600001908051906020019061030c929190610cd4565b50602082015181600101556040820151816002019080519060200190610333929190610cd4565b506060820151816003019080519060200190610350929190610cd4565b50608082015181600401908051906020019061036d929190610cd4565b5060a0820151816005015560c0820151816006015560e08201518160070160006101000a81548160ff0219169083151502179055509050505b7fc6b7262278c7b8e3d8b30e1de91c10b1494f57dd9f8abfcdcd5edc312562fb37816040516103d591906113d3565b60405180910390a18095505050505050949350505050565b60016002600083815260200190815260200160002060070160006101000a81548160ff02191690831515021790555050565b60006060600260008481526020019081526020016000206000018054600181600116156101000203166002900480601f0160208091040260200160405190810160405280929190818152602001828054600181600116156101000203166002900480156104cd5780601f106104a2576101008083540402835291602001916104cd565b820191906000526020600020905b8154815290600101906020018083116104b057829003601f168201915b5050505050905060008151146104e45760006104e7565b60015b915050919050565b60606000600154905060608160405190808252806020026020018201604052801561053457816020015b610521610d54565b8152602001906001900390816105195790505b50905060008090505b6001548110156108cb57600085828151811061055557fe5b60200260200101519050610567610d9b565b6002600083815260200190815260200160002060405180610100016040529081600082018054600181600116156101000203166002900480601f01602080910402602001604051908101604052809291908181526020018280546001816001161561010002031660029004801561061f5780601f106105f45761010080835404028352916020019161061f565b820191906000526020600020905b81548152906001019060200180831161060257829003601f168201915b5050505050815260200160018201548152602001600282018054600181600116156101000203166002900480601f0160208091040260200160405190810160405280929190818152602001828054600181600116156101000203166002900480156106cb5780601f106106a0576101008083540402835291602001916106cb565b820191906000526020600020905b8154815290600101906020018083116106ae57829003601f168201915b50505050508152602001600382018054600181600116156101000203166002900480601f01602080910402602001604051908101604052809291908181526020018280546001816001161561010002031660029004801561076d5780601f106107425761010080835404028352916020019161076d565b820191906000526020600020905b81548152906001019060200180831161075057829003601f168201915b50505050508152602001600482018054600181600116156101000203166002900480601f01602080910402602001604051908101604052809291908181526020018280546001816001161561010002031660029004801561080f5780601f106107e45761010080835404028352916020019161080f565b820191906000526020600020905b8154815290600101906020018083116107f257829003601f168201915b5050505050815260200160058201548152602001600682015481526020016007820160009054906101000a900460ff161515151581525050905060405180610100016040528082600001518152602001826020015181526020018260400151815260200182606001518152602001826080015181526020018260a0015181526020018260c0015181526020018260e0015115158152508484815181106108b157fe5b60200260200101819052505050808060010191505061053d565b508092505050919050565b60006060600260008481526020019081526020016000206000018054600181600116156101000203166002900480601f0160208091040260200160405190810160405280929190818152602001828054600181600116156101000203166002900480156109845780601f1061095957610100808354040283529160200191610984565b820191906000526020600020905b81548152906001019060200180831161096757829003601f168201915b5050505050905060008082511461099c57600161099f565b60005b9050600115158115151480156109ca5750600260008581526020019081526020016000206006015442105b80156109fd5750600015156002600086815260200190815260200160002060070160009054906101000a900460ff161515145b15610a0d57600192505050610a14565b6000925050505b919050565b60015481565b6002602052806000526040600020600091509050806000018054600181600116156101000203166002900480601f016020809104026020016040519081016040528092919081815260200182805460018160011615610100020316600290048015610acb5780601f10610aa057610100808354040283529160200191610acb565b820191906000526020600020905b815481529060010190602001808311610aae57829003601f168201915b505050505090806001015490806002018054600181600116156101000203166002900480601f016020809104026020016040519081016040528092919081815260200182805460018160011615610100020316600290048015610b6f5780601f10610b4457610100808354040283529160200191610b6f565b820191906000526020600020905b815481529060010190602001808311610b5257829003601f168201915b505050505090806003018054600181600116156101000203166002900480601f016020809104026020016040519081016040528092919081815260200182805460018160011615610100020316600290048015610c0d5780601f10610be257610100808354040283529160200191610c0d565b820191906000526020600020905b815481529060010190602001808311610bf057829003601f168201915b505050505090806004018054600181600116156101000203166002900480601f016020809104026020016040519081016040528092919081815260200182805460018160011615610100020316600290048015610cab5780601f10610c8057610100808354040283529160200191610cab565b820191906000526020600020905b815481529060010190602001808311610c8e57829003601f168201915b5050505050908060050154908060060154908060070160009054906101000a900460ff16905088565b828054600181600116156101000203166002900490600052602060002090601f016020900481019282601f10610d1557805160ff1916838001178555610d43565b82800160010185558215610d43579182015b82811115610d42578251825591602001919060010190610d27565b5b509050610d509190610de2565b5090565b604051806101000160405280606081526020016000815260200160608152602001606081526020016060815260200160008152602001600081526020016000151581525090565b604051806101000160405280606081526020016000815260200160608152602001606081526020016060815260200160008152602001600081526020016000151581525090565b610e0491905b80821115610e00576000816000905550600101610de8565b5090565b90565b600082601f830112610e1857600080fd5b8135610e2b610e26826114f2565b6114c5565b91508181835260208401935060208101905083856020840282011115610e5057600080fd5b60005b83811015610e805781610e668882610e8a565b845260208401935060208301925050600181019050610e53565b5050505092915050565b600081359050610e9981611655565b92915050565b600081519050610eae81611655565b92915050565b600082601f830112610ec557600080fd5b8135610ed8610ed38261151a565b6114c5565b91508082526020830160208301858383011115610ef457600080fd5b610eff8382846115f8565b50505092915050565b600060208284031215610f1a57600080fd5b600082013567ffffffffffffffff811115610f3457600080fd5b610f4084828501610e07565b91505092915050565b600060208284031215610f5b57600080fd5b6000610f6984828501610e8a565b91505092915050565b600060208284031215610f8457600080fd5b6000610f9284828501610e9f565b91505092915050565b60008060008060808587031215610fb157600080fd5b600085013567ffffffffffffffff811115610fcb57600080fd5b610fd787828801610eb4565b945050602085013567ffffffffffffffff811115610ff457600080fd5b61100087828801610eb4565b935050604085013567ffffffffffffffff81111561101d57600080fd5b61102987828801610eb4565b925050606085013567ffffffffffffffff81111561104657600080fd5b61105287828801610eb4565b91505092959194509250565b600061106a8383611221565b905092915050565b600061107d82611556565b611087818561158f565b93508360208202850161109985611546565b8060005b858110156110d557848403895281516110b6858261105e565b94506110c183611582565b925060208a0199505060018101905061109d565b50829750879550505050505092915050565b6110f0816115d8565b82525050565b6110ff816115d8565b82525050565b61110e816115e4565b82525050565b600061111f82611561565b61112981856115a0565b9350611139818560208601611607565b80840191505092915050565b600061115082611577565b61115a81856115bc565b935061116a818560208601611607565b61117381611644565b840191505092915050565b600061118982611577565b61119381856115cd565b93506111a3818560208601611607565b80840191505092915050565b60006111ba8261156c565b6111c481856115ab565b93506111d4818560208601611607565b6111dd81611644565b840191505092915050565b60006111f38261156c565b6111fd81856115bc565b935061120d818560208601611607565b61121681611644565b840191505092915050565b600061010083016000830151848203600086015261123f82826111af565b915050602083015161125460208601826112e6565b506040830151848203604086015261126c82826111af565b9150506060830151848203606086015261128682826111af565b915050608083015184820360808601526112a082826111af565b91505060a08301516112b560a08601826112e6565b5060c08301516112c860c08601826112e6565b5060e08301516112db60e08601826110e7565b508091505092915050565b6112ef816115ee565b82525050565b6112fe816115ee565b82525050565b611315611310826115ee565b61163a565b82525050565b60006113278284611114565b915081905092915050565b600061133e828961117e565b915061134a828861117e565b91506113568287611304565b602082019150611366828661117e565b91506113728285611304565b6020820191506113828284611304565b602082019150819050979650505050505050565b600060208201905081810360008301526113b08184611072565b905092915050565b60006020820190506113cd60008301846110f6565b92915050565b60006020820190506113e86000830184611105565b92915050565b600060208201905081810360008301526114088184611145565b905092915050565b600061010082019050818103600083015261142b818b6111e8565b905061143a602083018a6112f5565b818103604083015261144c81896111e8565b9050818103606083015261146081886111e8565b9050818103608083015261147481876111e8565b905061148360a08301866112f5565b61149060c08301856112f5565b61149d60e08301846110f6565b9998505050505050505050565b60006020820190506114bf60008301846112f5565b92915050565b6000604051905081810181811067ffffffffffffffff821117156114e857600080fd5b8060405250919050565b600067ffffffffffffffff82111561150957600080fd5b602082029050602081019050919050565b600067ffffffffffffffff82111561153157600080fd5b601f19601f8301169050602081019050919050565b6000819050602082019050919050565b600081519050919050565b600081519050919050565b600081519050919050565b600081519050919050565b6000602082019050919050565b600082825260208201905092915050565b600081905092915050565b600082825260208201905092915050565b600082825260208201905092915050565b600081905092915050565b60008115159050919050565b6000819050919050565b6000819050919050565b82818337600083830152505050565b60005b8381101561162557808201518184015260208101905061160a565b83811115611634576000848401525b50505050565b6000819050919050565b6000601f19601f8301169050919050565b61165e816115e4565b811461166957600080fd5b5056fea365627a7a72315820c799206fad3a3c8a730d6c16f6f27d9797a178b9800f23e369f83a7ca95b0d8c6c6578706572696d656e74616cf564736f6c63430005100040",
  "source": "// SPDX-License-Identifier: MIT\npragma solidity >=0.4.0 <0.9.0;\npragma experimental ABIEncoderV2;\ncontract Hello {\n\n   address contractOwner;\n   uint public permitno=1;\n\n   // struct Date{\n   //    uint day;\n   //    uint month;\n   //    uint year;\n   // }\n\n   struct user{\n      string userId;\n      uint permitno;\n      string division;\n      string signatory;\n      //string hash2;\n      string name;\n      uint startDate;\n      uint endDate;\n      bool canceled;\n   }\n\n   mapping(bytes32=>user)public userDetails;\n\n    event e(bytes32 _hash1);\n\n//    constructor() public{\n//       contractOwner=msg.sender;\n//       permitno++;\n//    }\n\n  \n\n   function issuePermit(string memory _userId,string memory _division,string memory _name,string memory _signatory) public returns(bytes32){\n      permitno++;\n      bool _canceled=false;\n      uint _start=block.timestamp;// current timestamp\n      uint _end=_start+31556926; //1 year valid\n      string memory combined=string(abi.encodePacked(_userId,_division,permitno,_signatory,_start,_end));\n      bytes32 _hash1=sha256(abi.encode(combined));\n      //bytes32 _hash2=sha256(_hash1);\n      if(notexist(_hash1)==true &&  block.timestamp<_end){\n      userDetails[_hash1]=user(_userId,permitno,_division,_signatory,_name,_start,_end,_canceled); //[\"Asddsadsk6484\"]=>(\"raman\",\"55\",\"A\",\"ramesh\",\"hash for mongo\")\n      }\n      emit e(_hash1);\n      return _hash1;\n   }\n\n   function isValid(bytes32 _hash1) view public returns(bool){\n      bytes memory tempEmptyStringTest = bytes(userDetails[_hash1].userId); // Uses memory\n      bool temp=(tempEmptyStringTest.length==0?false:true);\n      if(temp==true && block.timestamp<userDetails[_hash1].endDate && userDetails[_hash1].canceled==false ){\n         return true;\n      }\n      return false;\n   } \n   \n   function notexist(bytes32 _hash1) view public returns(bool){\n      bytes memory tempEmptyStringTest = bytes(userDetails[_hash1].userId); // Uses memory\n      return (tempEmptyStringTest.length==0?true:false);\n   }\n\n   function all(bytes32[]  memory _hashes) public view returns(user[] memory){\n      uint size=permitno;\n      user[] memory _allUser=new user[](size);\n      for(uint i=0;i<permitno;i++){\n         bytes32 _userhash=_hashes[i];\n         user memory a=userDetails[_userhash];\n         _allUser[i]=user(a.userId,a.permitno,a.division,a.signatory,a.name,a.startDate,a.endDate,a.canceled);\n      }\n      return _allUser;\n   }\n\n   // function updatePermit(bytes32 _hash1,uint _newend)public{\n\n   // }\n   function cancelPermit(bytes32 _hash1)public{\n      userDetails[_hash1].canceled=true;\n   }\n\n   //getUserData , UpdatePermit, cancelPermit, getDataLocationWise\n\n}",
  "sourcePath": "/home/harsh/Desktop/blockidm/truffle/contracts/hello.sol",
  "compiler": {
    "name": "solc",
    "version": "0.5.16+commit.9c3226ce.Emscripten.clang"
  },
  "schemaVersion": "3.4.3",
  "updatedAt": "2021-12-09T11:26:16.694Z",
  "networkType": "ethereum",
  "devdoc": {
    "methods": {}
  },
  "userdoc": {
    "methods": {}
  }
}