{
  "contractName": "Hello",
  "abi": [
    {
      "constant": true,
      "inputs": [],
      "name": "permitno",
      "outputs": [
        {
          "internalType": "uint256",
          "name": "",
          "type": "uint256"
        }
      ],
      "payable": false,
      "stateMutability": "view",
      "type": "function"
    },
    {
      "constant": true,
      "inputs": [
        {
          "internalType": "bytes32",
          "name": "",
          "type": "bytes32"
        }
      ],
      "name": "userDetails",
      "outputs": [
        {
          "internalType": "string",
          "name": "userId",
          "type": "string"
        },
        {
          "internalType": "string",
          "name": "permitno",
          "type": "string"
        },
        {
          "internalType": "string",
          "name": "division",
          "type": "string"
        },
        {
          "internalType": "string",
          "name": "signatory",
          "type": "string"
        },
        {
          "internalType": "string",
          "name": "name",
          "type": "string"
        }
      ],
      "payable": false,
      "stateMutability": "view",
      "type": "function"
    },
    {
      "constant": false,
      "inputs": [
        {
          "internalType": "string",
          "name": "_userId",
          "type": "string"
        },
        {
          "internalType": "string",
          "name": "_division",
          "type": "string"
        },
        {
          "internalType": "string",
          "name": "_permitno",
          "type": "string"
        },
        {
          "internalType": "string",
          "name": "_signatory",
          "type": "string"
        }
      ],
      "name": "issuePermit",
      "outputs": [
        {
          "internalType": "bytes32",
          "name": "",
          "type": "bytes32"
        }
      ],
      "payable": false,
      "stateMutability": "nonpayable",
      "type": "function"
    },
    {
      "constant": true,
      "inputs": [
        {
          "internalType": "bytes32",
          "name": "_hash1",
          "type": "bytes32"
        }
      ],
      "name": "isValid",
      "outputs": [
        {
          "internalType": "bool",
          "name": "",
          "type": "bool"
        }
      ],
      "payable": false,
      "stateMutability": "view",
      "type": "function"
    }
  ],
  "bytecode": "0x6080604052600060015534801561001557600080fd5b50610cb3806100256000396000f3fe608060405234801561001057600080fd5b506004361061004c5760003560e01c80630b63bc69146100515780636a938567146100815780636cd33f79146100b15780637d05414a146100cf575b600080fd5b61006b60048036036100669190810190610843565b610103565b6040516100789190610a77565b60405180910390f35b61009b600480360361009691908101906107f1565b6102ca565b6040516100a89190610a5c565b60405180910390f35b6100b961039a565b6040516100c69190610b2a565b60405180910390f35b6100e960048036036100e491908101906107f1565b6103a0565b6040516100fa959493929190610ab4565b60405180910390f35b600060016000815480929190600101919050555060606040518060400160405280600681526020017f52616a6573680000000000000000000000000000000000000000000000000000815250905060608686868660405160200161016a9493929190610a1e565b604051602081830303815290604052905060006002826040516020016101909190610a92565b6040516020818303038152906040526040516101ac9190610a07565b602060405180830381855afa1580156101c9573d6000803e3d6000fd5b5050506040513d601f19601f820116820180604052506101ec919081019061081a565b90506040518060a00160405280898152602001878152602001888152602001868152602001848152506002600083815260200190815260200160002060008201518160000190805190602001906102449291906106ce565b5060208201518160010190805190602001906102619291906106ce565b50604082015181600201908051906020019061027e9291906106ce565b50606082015181600301908051906020019061029b9291906106ce565b5060808201518160040190805190602001906102b89291906106ce565b50905050809350505050949350505050565b60006060600260008481526020019081526020016000206000018054600181600116156101000203166002900480601f0160208091040260200160405190810160405280929190818152602001828054600181600116156101000203166002900480156103785780601f1061034d57610100808354040283529160200191610378565b820191906000526020600020905b81548152906001019060200180831161035b57829003601f168201915b50505050509050600081511461038f576001610392565b60005b915050919050565b60015481565b6002602052806000526040600020600091509050806000018054600181600116156101000203166002900480601f01602080910402602001604051908101604052809291908181526020018280546001816001161561010002031660029004801561044c5780601f106104215761010080835404028352916020019161044c565b820191906000526020600020905b81548152906001019060200180831161042f57829003601f168201915b505050505090806001018054600181600116156101000203166002900480601f0160208091040260200160405190810160405280929190818152602001828054600181600116156101000203166002900480156104ea5780601f106104bf576101008083540402835291602001916104ea565b820191906000526020600020905b8154815290600101906020018083116104cd57829003601f168201915b505050505090806002018054600181600116156101000203166002900480601f0160208091040260200160405190810160405280929190818152602001828054600181600116156101000203166002900480156105885780601f1061055d57610100808354040283529160200191610588565b820191906000526020600020905b81548152906001019060200180831161056b57829003601f168201915b505050505090806003018054600181600116156101000203166002900480601f0160208091040260200160405190810160405280929190818152602001828054600181600116156101000203166002900480156106265780601f106105fb57610100808354040283529160200191610626565b820191906000526020600020905b81548152906001019060200180831161060957829003601f168201915b505050505090806004018054600181600116156101000203166002900480601f0160208091040260200160405190810160405280929190818152602001828054600181600116156101000203166002900480156106c45780601f10610699576101008083540402835291602001916106c4565b820191906000526020600020905b8154815290600101906020018083116106a757829003601f168201915b5050505050905085565b828054600181600116156101000203166002900490600052602060002090601f016020900481019282601f1061070f57805160ff191683800117855561073d565b8280016001018555821561073d579182015b8281111561073c578251825591602001919060010190610721565b5b50905061074a919061074e565b5090565b61077091905b8082111561076c576000816000905550600101610754565b5090565b90565b60008135905061078281610c59565b92915050565b60008151905061079781610c59565b92915050565b600082601f8301126107ae57600080fd5b81356107c16107bc82610b72565b610b45565b915080825260208301602083018583830111156107dd57600080fd5b6107e8838284610c06565b50505092915050565b60006020828403121561080357600080fd5b600061081184828501610773565b91505092915050565b60006020828403121561082c57600080fd5b600061083a84828501610788565b91505092915050565b6000806000806080858703121561085957600080fd5b600085013567ffffffffffffffff81111561087357600080fd5b61087f8782880161079d565b945050602085013567ffffffffffffffff81111561089c57600080fd5b6108a88782880161079d565b935050604085013567ffffffffffffffff8111156108c557600080fd5b6108d18782880161079d565b925050606085013567ffffffffffffffff8111156108ee57600080fd5b6108fa8782880161079d565b91505092959194509250565b61090f81610be6565b82525050565b61091e81610bf2565b82525050565b600061092f82610b9e565b6109398185610bbf565b9350610949818560208601610c15565b80840191505092915050565b600061096082610bb4565b61096a8185610bca565b935061097a818560208601610c15565b61098381610c48565b840191505092915050565b600061099982610bb4565b6109a38185610bdb565b93506109b3818560208601610c15565b80840191505092915050565b60006109ca82610ba9565b6109d48185610bca565b93506109e4818560208601610c15565b6109ed81610c48565b840191505092915050565b610a0181610bfc565b82525050565b6000610a138284610924565b915081905092915050565b6000610a2a828761098e565b9150610a36828661098e565b9150610a42828561098e565b9150610a4e828461098e565b915081905095945050505050565b6000602082019050610a716000830184610906565b92915050565b6000602082019050610a8c6000830184610915565b92915050565b60006020820190508181036000830152610aac8184610955565b905092915050565b600060a0820190508181036000830152610ace81886109bf565b90508181036020830152610ae281876109bf565b90508181036040830152610af681866109bf565b90508181036060830152610b0a81856109bf565b90508181036080830152610b1e81846109bf565b90509695505050505050565b6000602082019050610b3f60008301846109f8565b92915050565b6000604051905081810181811067ffffffffffffffff82111715610b6857600080fd5b8060405250919050565b600067ffffffffffffffff821115610b8957600080fd5b601f19601f8301169050602081019050919050565b600081519050919050565b600081519050919050565b600081519050919050565b600081905092915050565b600082825260208201905092915050565b600081905092915050565b60008115159050919050565b6000819050919050565b6000819050919050565b82818337600083830152505050565b60005b83811015610c33578082015181840152602081019050610c18565b83811115610c42576000848401525b50505050565b6000601f19601f8301169050919050565b610c6281610bf2565b8114610c6d57600080fd5b5056fea365627a7a723158201a5d4ac468914ca9287751ecbc2856141096f47b2057a88b8c3636c520f9a23e6c6578706572696d656e74616cf564736f6c63430005100040",
  "source": "// SPDX-License-Identifier: MIT\npragma solidity >=0.4.0 <0.9.0;\npragma experimental ABIEncoderV2;\ncontract Hello {\n\n   address contractOwner;\n   uint public permitno=0;\n\n   // struct Date{\n   //    uint day;\n   //    uint month;\n   //    uint year;\n   // }\n\n   struct user{\n      string userId;\n      string permitno;\n      // Date startDate;\n      string division;\n      // Date endDate;\n      string signatory;\n     // string hashSec;\n      string name;\n   }\n\n   mapping(bytes32=>user)public userDetails;\n\n   // constructor() public{\n   //    contractOwner=msg.sender;\n   // }\n\n\n   function issuePermit(string memory _userId,string memory _division,string memory _permitno,string memory _signatory) public returns(bytes32){\n      permitno++;\n      string memory _name=\"Rajesh\";\n      string memory combined=string(abi.encodePacked(_userId,_division,_permitno,_signatory));\n      bytes32 _hash1=sha256(abi.encode(combined));\n      //bytes32 _hash2=sha256(_hash1);\n      userDetails[_hash1]=user(_userId,_permitno,_division,_signatory,_name); //[\"Asddsadsk6484\"]=>(\"raman\",\"55\",\"A\",\"ramesh\",\"hash for mongo\")\n      return _hash1;\n   }\n\n   function isValid(bytes32 _hash1) view public returns(bool){\n      bytes memory tempEmptyStringTest = bytes(userDetails[_hash1].userId); // Uses memory\n      return (tempEmptyStringTest.length==0?false:true);\n   }\n\n}",
  "sourcePath": "/mnt/c/Users/RishavK/Desktop/blockidm/truffle/contracts/hello.sol",
  "compiler": {
    "name": "solc",
    "version": "0.5.16+commit.9c3226ce.Emscripten.clang"
  },
  "schemaVersion": "3.4.3",
  "updatedAt": "2021-11-29T09:54:57.610Z",
  "networkType": "ethereum",
  "devdoc": {
    "methods": {}
  },
  "userdoc": {
    "methods": {}
  }
}