{
  "contractName": "Hello",
  "abi": [
    {
      "constant": true,
      "inputs": [],
      "name": "permitno",
      "outputs": [
        {
          "internalType": "uint256",
          "name": "",
          "type": "uint256"
        }
      ],
      "payable": false,
      "stateMutability": "view",
      "type": "function"
    },
    {
      "constant": true,
      "inputs": [
        {
          "internalType": "bytes32",
          "name": "",
          "type": "bytes32"
        }
      ],
      "name": "userDetails",
      "outputs": [
        {
          "internalType": "string",
          "name": "userId",
          "type": "string"
        },
        {
          "internalType": "string",
          "name": "permitno",
          "type": "string"
        },
        {
          "internalType": "string",
          "name": "division",
          "type": "string"
        },
        {
          "internalType": "string",
          "name": "signatory",
          "type": "string"
        },
        {
          "internalType": "string",
          "name": "name",
          "type": "string"
        }
      ],
      "payable": false,
      "stateMutability": "view",
      "type": "function"
    },
    {
      "constant": false,
      "inputs": [
        {
          "internalType": "string",
          "name": "_userId",
          "type": "string"
        },
        {
          "internalType": "string",
          "name": "_division",
          "type": "string"
        },
        {
          "internalType": "string",
          "name": "_permitno",
          "type": "string"
        },
        {
          "internalType": "string",
          "name": "_signatory",
          "type": "string"
        }
      ],
      "name": "issuePermit",
      "outputs": [],
      "payable": false,
      "stateMutability": "nonpayable",
      "type": "function"
    },
    {
      "constant": true,
      "inputs": [
        {
          "internalType": "bytes32",
          "name": "_hash1",
          "type": "bytes32"
        }
      ],
      "name": "isValid",
      "outputs": [
        {
          "internalType": "bool",
          "name": "",
          "type": "bool"
        }
      ],
      "payable": false,
      "stateMutability": "view",
      "type": "function"
    }
  ],
  "bytecode": "0x6080604052600060015534801561001557600080fd5b50610c6e806100256000396000f3fe608060405234801561001057600080fd5b506004361061004c5760003560e01c80630b63bc69146100515780636a9385671461006d5780636cd33f791461009d5780637d05414a146100bb575b600080fd5b61006b60048036036100669190810190610828565b6100ef565b005b610087600480360361008291908101906107d6565b6102af565b6040516100949190610a32565b60405180910390f35b6100a561037f565b6040516100b29190610ae5565b60405180910390f35b6100d560048036036100d091908101906107d6565b610385565b6040516100e6959493929190610a6f565b60405180910390f35b60016000815480929190600101919050555060606040518060400160405280600681526020017f52616a6573680000000000000000000000000000000000000000000000000000815250905060608585858560405160200161015494939291906109f4565b6040516020818303038152906040529050600060028260405160200161017a9190610a4d565b60405160208183030381529060405260405161019691906109dd565b602060405180830381855afa1580156101b3573d6000803e3d6000fd5b5050506040513d601f19601f820116820180604052506101d691908101906107ff565b90506040518060a001604052808881526020018681526020018781526020018581526020018481525060026000838152602001908152602001600020600082015181600001908051906020019061022e9291906106b3565b50602082015181600101908051906020019061024b9291906106b3565b5060408201518160020190805190602001906102689291906106b3565b5060608201518160030190805190602001906102859291906106b3565b5060808201518160040190805190602001906102a29291906106b3565b5090505050505050505050565b60006060600260008481526020019081526020016000206000018054600181600116156101000203166002900480601f01602080910402602001604051908101604052809291908181526020018280546001816001161561010002031660029004801561035d5780601f106103325761010080835404028352916020019161035d565b820191906000526020600020905b81548152906001019060200180831161034057829003601f168201915b505050505090506000815114610374576001610377565b60005b915050919050565b60015481565b6002602052806000526040600020600091509050806000018054600181600116156101000203166002900480601f0160208091040260200160405190810160405280929190818152602001828054600181600116156101000203166002900480156104315780601f1061040657610100808354040283529160200191610431565b820191906000526020600020905b81548152906001019060200180831161041457829003601f168201915b505050505090806001018054600181600116156101000203166002900480601f0160208091040260200160405190810160405280929190818152602001828054600181600116156101000203166002900480156104cf5780601f106104a4576101008083540402835291602001916104cf565b820191906000526020600020905b8154815290600101906020018083116104b257829003601f168201915b505050505090806002018054600181600116156101000203166002900480601f01602080910402602001604051908101604052809291908181526020018280546001816001161561010002031660029004801561056d5780601f106105425761010080835404028352916020019161056d565b820191906000526020600020905b81548152906001019060200180831161055057829003601f168201915b505050505090806003018054600181600116156101000203166002900480601f01602080910402602001604051908101604052809291908181526020018280546001816001161561010002031660029004801561060b5780601f106105e05761010080835404028352916020019161060b565b820191906000526020600020905b8154815290600101906020018083116105ee57829003601f168201915b505050505090806004018054600181600116156101000203166002900480601f0160208091040260200160405190810160405280929190818152602001828054600181600116156101000203166002900480156106a95780601f1061067e576101008083540402835291602001916106a9565b820191906000526020600020905b81548152906001019060200180831161068c57829003601f168201915b5050505050905085565b828054600181600116156101000203166002900490600052602060002090601f016020900481019282601f106106f457805160ff1916838001178555610722565b82800160010185558215610722579182015b82811115610721578251825591602001919060010190610706565b5b50905061072f9190610733565b5090565b61075591905b80821115610751576000816000905550600101610739565b5090565b90565b60008135905061076781610c14565b92915050565b60008151905061077c81610c14565b92915050565b600082601f83011261079357600080fd5b81356107a66107a182610b2d565b610b00565b915080825260208301602083018583830111156107c257600080fd5b6107cd838284610bc1565b50505092915050565b6000602082840312156107e857600080fd5b60006107f684828501610758565b91505092915050565b60006020828403121561081157600080fd5b600061081f8482850161076d565b91505092915050565b6000806000806080858703121561083e57600080fd5b600085013567ffffffffffffffff81111561085857600080fd5b61086487828801610782565b945050602085013567ffffffffffffffff81111561088157600080fd5b61088d87828801610782565b935050604085013567ffffffffffffffff8111156108aa57600080fd5b6108b687828801610782565b925050606085013567ffffffffffffffff8111156108d357600080fd5b6108df87828801610782565b91505092959194509250565b6108f481610ba1565b82525050565b600061090582610b59565b61090f8185610b7a565b935061091f818560208601610bd0565b80840191505092915050565b600061093682610b6f565b6109408185610b85565b9350610950818560208601610bd0565b61095981610c03565b840191505092915050565b600061096f82610b6f565b6109798185610b96565b9350610989818560208601610bd0565b80840191505092915050565b60006109a082610b64565b6109aa8185610b85565b93506109ba818560208601610bd0565b6109c381610c03565b840191505092915050565b6109d781610bb7565b82525050565b60006109e982846108fa565b915081905092915050565b6000610a008287610964565b9150610a0c8286610964565b9150610a188285610964565b9150610a248284610964565b915081905095945050505050565b6000602082019050610a4760008301846108eb565b92915050565b60006020820190508181036000830152610a67818461092b565b905092915050565b600060a0820190508181036000830152610a898188610995565b90508181036020830152610a9d8187610995565b90508181036040830152610ab18186610995565b90508181036060830152610ac58185610995565b90508181036080830152610ad98184610995565b90509695505050505050565b6000602082019050610afa60008301846109ce565b92915050565b6000604051905081810181811067ffffffffffffffff82111715610b2357600080fd5b8060405250919050565b600067ffffffffffffffff821115610b4457600080fd5b601f19601f8301169050602081019050919050565b600081519050919050565b600081519050919050565b600081519050919050565b600081905092915050565b600082825260208201905092915050565b600081905092915050565b60008115159050919050565b6000819050919050565b6000819050919050565b82818337600083830152505050565b60005b83811015610bee578082015181840152602081019050610bd3565b83811115610bfd576000848401525b50505050565b6000601f19601f8301169050919050565b610c1d81610bad565b8114610c2857600080fd5b5056fea365627a7a72315820850e3053c39c1a7a97333719b42b8f40524ca81b04ade96abe37430136fff3736c6578706572696d656e74616cf564736f6c63430005100040",
  "source": "// SPDX-License-Identifier: MIT\r\npragma solidity >=0.4.0 <0.9.0;\r\npragma experimental ABIEncoderV2;\r\ncontract Hello {\r\n\r\n   address contractOwner;\r\n   uint public permitno=0;\r\n\r\n   // struct Date{\r\n   //    uint day;\r\n   //    uint month;\r\n   //    uint year;\r\n   // }\r\n\r\n   struct user{\r\n      string userId;\r\n      string permitno;\r\n      // Date startDate;\r\n      string division;\r\n      // Date endDate;\r\n      string signatory;\r\n     // string hashSec;\r\n      string name;\r\n   }\r\n\r\n   mapping(bytes32=>user)public userDetails;\r\n\r\n   // constructor() public{\r\n   //    contractOwner=msg.sender;\r\n   // }\r\n\r\n\r\n   function issuePermit(string memory _userId,string memory _division,string memory _permitno,string memory _signatory) public{\r\n      permitno++;\r\n      string memory _name=\"Rajesh\";\r\n      string memory combined=string(abi.encodePacked(_userId,_division,_permitno,_signatory));\r\n      bytes32 _hash1=sha256(abi.encode(combined));\r\n      //bytes32 _hash2=sha256(_hash1);\r\n      userDetails[_hash1]=user(_userId,_permitno,_division,_signatory,_name); //[\"Asddsadsk6484\"]=>(\"raman\",\"55\",\"A\",\"ramesh\",\"hash for mongo\")\r\n   }\r\n\r\n   function isValid(bytes32 _hash1) view public returns(bool){\r\n      bytes memory tempEmptyStringTest = bytes(userDetails[_hash1].userId); // Uses memory\r\n      return (tempEmptyStringTest.length==0?false:true);\r\n   }\r\n\r\n}",
  "sourcePath": "C:/Users/HARSH VASHISTHA/Desktop/blockidm/truffle/contracts/hello.sol",
  "compiler": {
    "name": "solc",
    "version": "0.5.16+commit.9c3226ce.Emscripten.clang"
  },
  "schemaVersion": "3.3.4",
  "updatedAt": "2021-11-08T18:28:00.584Z",
  "networkType": "ethereum",
  "devdoc": {
    "methods": {}
  },
  "userdoc": {
    "methods": {}
  }
}